:100000000C9459000C9481000C9481000C94810094
:100010000C9481000C9481000C9481000C9481005C
:100020000C9481000C9481000C9481000C9481004C
:100030000C9481000C9481000C9481000C9481003C
:100040000C94E5040C9481000C9488070C94BA0776
:100050000C9481000C9481000C9481000C9481001C
:100060000C94A5020C94810000000008000201001D
:100070000003040700000000000000000102040863
:100080001020408001020408102001020408102002
:10009000040404040404040402020202020203032E
:1000A0000303030300000000250028002B004C027E
:1000B000EA0711241FBECFEFD8E0DEBFCDBF11E0AD
:1000C000A0E0B1E0E0ECF9E102C005900D92A634A9
:1000D000B107D9F725E0A6E4B1E001C01D92A3392C
:1000E000B207E1F710E0C2EBD0E004C02297FE01B6
:1000F0000E94DA0CCE3AD107C9F70E942E080C9460
:10010000DE0C0C9400000F931F93CF93DF9326E037
:1001100040E855E260E070E086EF94E00E94260738
:1001200006E411E0C0E0D0E023E333E34DE652E41F
:10013000BE01C8010E94D2032196045A1F4FC83045
:10014000D10591F7C6E4D1E005E010E068EC75E078
:10015000CE010E94090401501109C1F7C45ADF4FB2
:1001600084E0C632D80781F766E070E08AE294E066
:100170000E94400260ED70E08AE294E00E94420238
:100180006FE371E08AE294E0DF91CF911F910F91CC
:100190000C94470261E070E080E090E00C9452051E
:1001A000CF92DF92EF92FF920F931F93CF93DF9343
:1001B00000D000D0CDB7DEB761E071E086EF94E00B
:1001C0000E947B088E010F5F1F4F7E0185E0E80EC5
:1001D000F11C8AE294E00E946501F80181938F018D
:1001E000EE15FF05B1F7C980DA80EB80FC802AE0CC
:1001F00030E0B701A60186EF94E00E94E9086BE0C9
:1002000071E086EF94E00E9488082CE52C9DC001E7
:100210002D9D900D112468EC75E08A5B9E4F0E9425
:100220000904609326047093270480932804909314
:1002300029046DE071E086EF94E00E947B08409114
:10024000260450912704609128047091290422E02B
:1002500030E086EF94E00E941E0A62E171E086EFD2
:1002600094E00F900F900F900F90DF91CF911F911E
:100270000F91FF90EF90DF90CF900C948808CF9370
:10028000DF9300D000D0CDB7DEB7A6E2B4E0FE0128
:100290003196BF018D91819384E0AA32B807D1F7DE
:1002A00044E050E08AE294E00E94B7010F900F9082
:1002B0000F900F90DF91CF91089580915D0490E0B1
:1002C00020915E04821B9109089520915E04809123
:1002D0005D04281750F4E22FF0E0E15AFB4F8081D3
:1002E00090E02F5F20935E0408958FEF9FEF0895B5
:1002F000E0915E0480915D04E81730F4F0E0E15A8B
:10030000FB4F808190E008958FEF9FEF089508954F
:10031000E0913604F09137043097E1F030915E04BB
:1003200020915D043217B0F040E0242F30E0261712
:10033000370754F4DC01A20FB31F5C91D901A15A15
:10034000BB4F5C934F5FF1CF10925E0460935D04EE
:10035000CB0109940895E0913804F0913904309765
:1003600029F010923C0410923B0409940895CF9216
:10037000DF92EF92FF920F931F93CF93DF937C0155
:10038000CB018A0120913A04222389F0EB016B0111
:10039000C40ED51ECC15DD0569F06991D701ED912C
:1003A000FC910190F081E02DC7010995F3CF642FF6
:1003B0000E947202C801DF91CF911F910F91FF90AF
:1003C000EF90DF90CF900895CF93DF931F92CDB73A
:1003D000DEB7698320913A042223D1F020913B04B7
:1003E000203240F021E030E0FC013383228380E0C2
:1003F00090E015C080913C04E82FF0E0E35CFB4FF7
:10040000998190838F5F80933C0480933B0405C067
:1004100061E0CE0101960E94720281E090E00F90AF
:10042000DF91CF910895FC011382128248EE53E0D0
:1004300060E070E0448355836683778388E191E0D0
:1004400091838083089510925E0410925D0410924F
:100450003C0410923B040C945002CF93DF93EC01C8
:10046000862F0E946E028BEA91E00E94900288E83B
:1004700091E00E948B02CE01DF91CF910C94230278
:100480000C942D0270933704609336040895709392
:1004900039046093380408958AE294E00C941302BE
:1004A0001092EC0481E08093EA041092E90461E088
:1004B00082E10E940D0661E083E10E940D06E9EBF6
:1004C000F0E080818E7F808380818D7F808388E4CF
:1004D0008093B80085E48093BC000895880F8093D2
:1004E000BA000895613298F42091EC04243089F424
:1004F0006093A104FC0183EA94E0DC012A2F281B0D
:10050000261718F421912D93F9CF80E0089581E00A
:10051000089582E008959093E6048093E504089599
:100520009093E8048093E704089585ED8093BC00E0
:100530008091BC0084FDFCCF1092EC04089585EC02
:100540008093BC001092EC0408951F920F920FB696
:100550000F9211242F933F934F935F936F937F9349
:100560008F939F93AF93BF93EF93FF938091B900C5
:10057000887F803609F49EC078F5883209F45DC022
:1005800090F4803109F456C038F4882309F4F5C09A
:10059000883009F44FC0F5C0883109F44EC080326C
:1005A00009F45FC0EEC0803409F46AC058F48033A7
:1005B00009F457C0883309F0E4C080937F040E9497
:1005C0009F02DFC0803509F44FC0883509F45DC053
:1005D000883409F0D6C0D3C0883909F4C4C0A8F45F
:1005E000883709F467C038F4883609F463C0803767
:1005F00009F460C0C6C0883809F4B5C0803909F470
:100600005FC0803809F0BDC05BC0803B09F483C087
:1006100038F4803A09F466C0883A09F47CC0B1C065
:10062000803C09F4A4C0883C09F4A1C0883B09F4CB
:1006300087C0A7C08091EB0410C09091C404809142
:10064000C304981770F5E091C40481E08E0F809385
:10065000C404F0E0EB53FB4F80818093BB0085EC3A
:1006600083C080937F048BC0E091C40481E08E0F2F
:100670008093C4048091BB00F0E0EB53FB4F808378
:100680009091C4048091C3046BC0E091C40481E0E4
:100690008E0F8093C4048091BB00F0E0EB53FB4FBE
:1006A00080838091EA0481116AC081E08093E9042B
:1006B00084EA5EC083E08093EC0410928004CFCF84
:1006C00080918004803208F04EC0E091800481E087
:1006D0008E0F809380048091BB00F0E0EF57FB4FBA
:1006E0008083BDCF0E949F0280918004803230F4CD
:1006F000E0918004F0E0EF57FB4F1082609180049E
:1007000070E0E091E504F091E60481E894E0099559
:100710001092800436C084E08093EC041092A2040E
:100720001092A104E091E704F091E804099580910A
:10073000A104811105C081E08093A1041092A3045B
:10074000E091A20481E08E0F8093A204F0E0ED55C9
:10075000FB4F80818093BB009091A2048091A10403
:10076000981708F47CCF85E88093BC000AC085EC1C
:100770008093BC001092EC0404C010927F040E948D
:100780009502FF91EF91BF91AF919F918F917F91D2
:100790006F915F914F913F912F910F900FBE0F90EE
:1007A0001F901895FC01778B668B248F358F468FB1
:1007B000578F40E050E060E074E440AF51AF62AF6B
:1007C00073AF08958EE480937C0062E070E080E077
:1007D00090E00E94520580917A00806480937A00B4
:1007E00080917A0086FDFCCF80917800209179007D
:1007F00030E0322F2227442737FD4095542F282BF5
:1008000060E070E381E190E00E94B90CCA01B90197
:1008100008952F923F924F925F926F927F928F92A4
:100820009F92AF92BF92CF92DF92EF92FF920F937F
:100830001F93CF93DF9300D000D000D0CDB7DEB7A9
:100840009E838D837A8369830E94E2032B013C019E
:1008500000E010E08D819E81845B9F4F1C01ED8143
:10086000FE81E85BFF4FFC83EB8389819A81081747
:10087000190709F455C0ED81FE8186890E94C705DC
:10088000ED81FE8197A386A3BC01882777FD809523
:10089000982F0E94250B6B017C01ED81FE8180ACBD
:1008A00091ACA2ACB3ACA50194010E94210A20E056
:1008B00030E040E85AE30E94D90B9B01AC01C5012E
:1008C000B4010E94220A9B01AC01ED81FE8160AF60
:1008D00071AF82AF93AFC701B6010E94210AED81CB
:1008E000FE8160AB71AB82AB93AB9B01AC010E940C
:1008F000D90B9B01AC01EB81FC8160837183828306
:100900009383F10160817181828193810E94220A27
:10091000F10160837183828393830F5F1F4FA5CFA3
:10092000B80180E090E00E94230B9B01AC01F10133
:1009300060817181828193810E948A0A0E94400CA9
:100940006B017C01B201882777FD8095982F0E946A
:10095000250B20E030E04AE754E40E948A0A20E0B8
:1009600030E040E85AE30E94D90BED81FE81248DEE
:10097000358D468D578D0E94D90BA70196010E9497
:10098000D90BED81FE81608B718B828B938BF10192
:10099000108211821282138226960FB6F894DEBF5F
:1009A0000FBECDBFDF91CF911F910F91FF90EF90C0
:1009B000DF90CF90BF90AF909F908F907F906F907F
:1009C0005F904F903F902F9008951F920F920FB617
:1009D0000F9211242F933F938F939F93AF93BF93C5
:1009E0008091EE049091EF04A091F004B091F10495
:1009F0003091ED0423E0230F2D3720F40196A11D43
:100A0000B11D05C026E8230F0296A11DB11D20933C
:100A1000ED048093EE049093EF04A093F004B09360
:100A2000F1048091F2049091F304A091F404B09148
:100A3000F5040196A11DB11D8093F2049093F30477
:100A4000A093F404B093F504BF91AF919F918F915F
:100A50003F912F910F900FBE0F901F9018953FB7A9
:100A6000F8948091F2049091F304A091F404B09171
:100A7000F50426B5A89B05C02F3F19F00196A11DCE
:100A8000B11D3FBF6627782F892F9A2F620F711DE6
:100A9000811D911D42E0660F771F881F991F4A959F
:100AA000D1F708958F929F92AF92BF92CF92DF922B
:100AB000EF92FF926B017C010E942F054B015C01BC
:100AC000C114D104E104F104F1F00E94200A0E9453
:100AD0002F05681979098A099B09683E73408105C9
:100AE000910570F321E0C21AD108E108F10888EEFF
:100AF000880E83E0981EA11CB11CC114D104E1042E
:100B0000F10429F7DDCFFF90EF90DF90CF90BF90F9
:100B1000AF909F908F900895789484B5826084BD43
:100B200084B5816084BD85B5826085BD85B58160F1
:100B300085BDEEE6F0E0808181608083E1E8F0E051
:100B40001082808182608083808181608083E0E880
:100B5000F0E0808181608083E1EBF0E0808184605F
:100B60008083E0EBF0E0808181608083EAE7F0E061
:100B700080818460808380818260808380818160C5
:100B800080838081806880831092C10008958E30B8
:100B900008F08E5087702091000190E4299F900109
:100BA0001124822B80937C0080917A008064809352
:100BB0007A0080917A0086FDFCCF809178002091A8
:100BC000790090E0922B0895833081F028F48130F1
:100BD00099F08230A1F008958730A9F08830B9F0FB
:100BE0008430D1F4809180008F7D03C0809180009B
:100BF0008F7780938000089584B58F7702C084B585
:100C00008F7D84BD08958091B0008F7703C080915F
:100C1000B0008F7D8093B00008950F931F93CF9302
:100C2000DF931F92CDB7DEB7282F30E0F901E859E6
:100C3000FF4F8491F901E458FF4F1491F901E057F7
:100C4000FF4F04910023C9F0882321F069830E949B
:100C5000E4056981E02FF0E0EE0FFF1FEC55FF4F38
:100C6000A591B4919FB7F8948C91611103C0109530
:100C7000812301C0812B8C939FBF0F90DF91CF9177
:100C80001F910F910895FC01818D228D90E0805C71
:100C90009F4F821B91098F7399270895FC01918DB5
:100CA000828D981731F0828DE80FF11D858D90E0CF
:100CB00008958FEF9FEF0895FC01918D828D981715
:100CC00061F0828DDF01A80FB11D5D968C91928D30
:100CD0009F5F9F73928F90E008958FEF9FEF08952D
:100CE00080EE97E0892B49F080E090E0892B29F095
:100CF0000E94E00781110C9400000895FC01848D8E
:100D0000DF01A80FB11DA35ABF4F2C91848D90E035
:100D100001968F739927848FA689B7892C93A08910
:100D2000B1898C9180648C93938D848D981306C0C7
:100D30000288F389E02D80818F7D80830895CF9391
:100D4000DF93EC01888D8823C9F0EA89FB898081D3
:100D500085FD05C0A889B9898C9186FD0FC00FB6A5
:100D600007FCF5CF808185FFF2CFA889B9898C91E6
:100D700085FFEDCFCE010E947E06E7CFDF91CF91B8
:100D80000895CF92DF92FF920F931F93CF93DF933B
:100D90001F92CDB7DEB76C0181E0D60158968C93D7
:100DA00058975B969C915B975C968C915C97981397
:100DB00007C05096ED91FC915197808185FD2EC022
:100DC000F601038D10E00F5F1F4F0F731127F02EF8
:100DD000F601848DF81211C00FB607FCF9CFD601C9
:100DE0005096ED91FC915197808185FFF1CFC6011E
:100DF00069830E947E066981EBCF838DE80FF11D28
:100E0000E35AFF4F6083D6015B960C935B97529633
:100E1000ED91FC915397808180620CC0D60156966B
:100E2000ED91FC91579760835096ED91FC9151970D
:100E300080818064808381E090E00F90DF91CF918A
:100E40001F910F91FF90DF90CF900895BF92CF92A6
:100E5000DF92EF92FF92CF93DF93EC016A017B0167
:100E6000B22EE889F98982E08083411581EE580726
:100E700061057105A1F060E079E08DE390E0A701E4
:100E800096010E94970C215031094109510956954C
:100E9000479537952795211580E1380798F0E8891F
:100EA000F989108260E874E88EE190E0A70196016C
:100EB0000E94970C215031094109510956954795D7
:100EC00037952795EC85FD853083EE85FF8520835A
:100ED000188EEC89FD89B082EA89FB898081806166
:100EE0008083EA89FB89808188608083EA89FB8925
:100EF000808180688083EA89FB8980818F7D8083FF
:100F0000DF91CF91FF90EF90DF90CF90BF90089549
:100F10001F920F920FB60F9211242F938F939F93CE
:100F2000EF93FF93E0910605F09107058081E09132
:100F30000C05F0910D0582FD12C0908180910F0586
:100F40008F5F8F7320911005821751F0E0910F058C
:100F5000F0E0EA50FB4F958F80930F0501C0808130
:100F6000FF91EF919F918F912F910F900FBE0F9056
:100F70001F9018951F920F920FB60F9211242F9366
:100F80003F934F935F936F937F938F939F93AF9311
:100F9000BF93EF93FF9386EF94E00E947E06FF914C
:100FA000EF91BF91AF919F918F917F916F915F91E1
:100FB0004F913F912F910F900FBE0F901F9018955A
:100FC00086EF94E00E94430621E0892B09F420E09B
:100FD000822F08951092F9041092F80488EE93E09D
:100FE000A0E0B0E08093FA049093FB04A093FC048B
:100FF000B093FD0488E291E09093F7048093F604A7
:1010000085EC90E0909303058093020584EC90E0DA
:10101000909305058093040580EC90E0909307057C
:101020008093060581EC90E0909309058093080574
:1010300082EC90E090930B0580930A0586EC90E09B
:1010400090930D0580930C0510920F0510921005DA
:101050001092110510921205089508950E948C05B2
:101060000E942D080E948300C0E7D6E00E94CA00BB
:101070002097E1F30E947006F9CFCF92DF92EF92B2
:10108000FF920F931F93CF93DF937C016A01EB01D3
:1010900000E010E00C151D0571F06991D701ED918C
:1010A000FC910190F081E02DC7010995892B19F081
:1010B0000F5F1F4FEFCFC801DF91CF911F910F91AD
:1010C000FF90EF90DF90CF9008956115710581F04A
:1010D000DB010D900020E9F7AD0141505109461B9D
:1010E000570BDC01ED91FC910280F381E02D099416
:1010F00080E090E008950C946508DC01ED91FC918E
:101100000190F081E02D099464E371E00C9465088E
:101110000F931F93CF93DF93EC010E9465088C011E
:10112000CE010E948408800F911FDF91CF911F9103
:101130000F9108958F929F92AF92BF92DF92EF929C
:10114000FF920F931F93CF93DF93CDB7DEB7A19795
:101150000FB6F894DEBF0FBECDBF7C01F42FD52EA5
:10116000CB0119A2223008F42AE08E010F5D1F4F37
:10117000822E912CA12CB12C6F2F7D2DA5019401D5
:101180000E94970CF22FD32ECA01015011096A3028
:1011900014F4E0E301C0E7E3E60FD801EC93232B5E
:1011A000242B252B49F7B801C7010E946508A19699
:1011B0000FB6F894DEBF0FBECDBFDF91CF911F9168
:1011C0000F91FF90EF90DF90BF90AF909F908F9026
:1011D0000895CF92DF92EF92FF920F931F93CF93D8
:1011E000DF93EC016A017B012115310579F4E88177
:1011F000F9810190F081E02D642FDF91CF911F9153
:101200000F91FF90EF90DF90CF9009942A30310535
:10121000E9F477FF1AC06DE20E947D088C01442733
:101220005527BA014C195D096E097F092AE0CE01E4
:101230000E949A08800F911FDF91CF911F910F910B
:10124000FF90EF90DF90CF9008952AE0B701A601BC
:10125000CE01DF91CF911F910F91FF90EF90DF9022
:10126000CF900C949A084F925F926F927F928F92D8
:101270009F92AF92BF92CF92DF92EF92FF920F9325
:101280001F93CF93DF93EC016A017B01B22E9A0189
:10129000AB01C701B6010E947E0C882319F067E3F9
:1012A00071E027C026013701E89477F82FEF3FEF70
:1012B0004FE75FE7C301B2010E947E0C81110DC0B0
:1012C0002FEF3FEF4FE75FE7C301B2010E94860AAD
:1012D00018161CF46BE371E00CC02FEF3FEF4FE7E3
:1012E0005FE4C701B6010E94D50B1816ACF46FE39A
:1012F00071E0CE01DF91CF911F910F91FF90EF90A0
:10130000DF90CF90BF90AF909F908F907F906F9025
:101310005F904F900C9465082FEF3FEF4FE75FEC25
:10132000C701B6010E94860A87FDE1CF20E030E0C8
:10133000A901C701B6010E94860A87FF0AC06DE2B3
:10134000CE010E947D088C01F7FAF094F7F8F09432
:1013500002C000E010E0A12C60E070E080E09FE3BC
:10136000AB1441F020E030E040E251E40E948A0AF0
:10137000A394F6CF9B01AC01C701B6010E94220ADB
:101380006B017C010E94F70A2B013C010E94230B98
:101390009B01AC01C701B6010E94210A6B017C01CF
:1013A0002AE0B301A201CE010E949A08080F191F7A
:1013B000BB2039F063E471E0CE010E946508080F9C
:1013C000191F7B2C772041F120E030E040E251E40E
:1013D000C701B6010E94D90B6B017C010E94F20A81
:1013E0004B01AA2497FCA094BA2C2AE030E0B50166
:1013F000A401CE010E94E908080F191FC501B4011C
:101400000E94250B9B01AC01C701B6010E94210A75
:101410006B017C017A94D6CFC801DF91CF911F91E7
:101420000F91FF90EF90DF90CF90BF90AF909F9083
:101430008F907F906F905F904F9008950C94330938
:1014400008955058BB27AA270ED075C166D130F039
:101450006BD120F031F49F3F11F41EF45BC10EF408
:10146000E095E7FB51C1E92F77D180F3BA17620706
:1014700073078407950718F071F49EF58FC10EF479
:10148000E0950B2EBA2FA02D0B01B90190010C0194
:10149000CA01A0011124FF27591B99F0593F50F4AC
:1014A000503E68F11A16F040A22F232F342F442704
:1014B000585FF3CF469537952795A795F0405395FC
:1014C000C9F77EF41F16BA0B620B730B840BBAF0CC
:1014D0009150A1F0FF0FBB1F661F771F881FC2F737
:1014E0000EC0BA0F621F731F841F48F4879577954B
:1014F0006795B795F7959E3F08F0B3CF9395880F02
:1015000008F09927EE0F979587950895D9D008F49C
:1015100081E008950CD00FC107D140F0FED030F02B
:1015200021F45F3F19F0F0C0511139C1F3C014D15B
:1015300098F39923C9F35523B1F3951B550BBB279A
:10154000AA2762177307840738F09F5F5F4F220F47
:10155000331F441FAA1FA9F333D00E2E3AF0E0E840
:1015600030D091505040E695001CCAF729D0FE2F8C
:1015700027D0660F771F881FBB1F2617370748071E
:10158000AB07B0E809F0BB0B802DBF01FF279358D4
:101590005F4F2AF09E3F510568F0B6C000C15F3F23
:1015A000ECF3983EDCF3869577956795B795F795BC
:1015B0009F5FC9F7880F911D9695879597F90895B4
:1015C000E1E0660F771F881FBB1F62177307840750
:1015D000BA0720F0621B730B840BBA0BEE1F88F75F
:1015E000E095089504D06894B111D9C00895BCD095
:1015F00088F09F5790F0B92F9927B751A0F0D1F0FC
:10160000660F771F881F991F1AF0BA95C9F712C085
:10161000B13081F0C3D0B1E00895C0C0672F782FFA
:101620008827B85F39F0B93FCCF3869577956795F1
:10163000B395D9F73EF490958095709561957F4F5D
:101640008F4F9F4F0895E89409C097FB3EF4909503
:101650008095709561957F4F8F4F9F4F9923A9F08B
:10166000F92F96E9BB279395F6958795779567951A
:10167000B795F111F8CFFAF4BB0F11F460FF1BC05E
:101680006F5F7F4F8F4F9F4F16C0882311F096E9F1
:1016900011C0772321F09EE8872F762F05C066239F
:1016A00071F096E8862F70E060E02AF09A95660F58
:1016B000771F881FDAF7880F9695879597F9089511
:1016C000990F0008550FAA0BE0E8FEEF1616170653
:1016D000E807F907C0F012161306E407F50798F0BB
:1016E000621B730B840B950B39F40A2661F0232BD4
:1016F000242B252B21F408950A2609F4A140A69550
:101700008FEF811D811D089597F99F6780E870E034
:1017100060E008959FEF80EC089500240A94161667
:10172000170618060906089500240A9412161306CF
:10173000140605060895092E0394000C11F488235D
:1017400052F0BB0F40F4BF2B11F460FF04C06F5F79
:101750007F4F8F4F9F4F089557FD9058440F551F4F
:1017600059F05F3F71F04795880F97FB991F61F023
:101770009F3F79F087950895121613061406551F9A
:10178000F2CF4695F1DF08C0161617061806991F06
:10179000F1CF86957105610508940895E894BB27FB
:1017A00066277727CB0197F908958ADF08F48FEF32
:1017B00008950BD0C0CFB1DF28F0B6DF18F0952325
:1017C00009F0A2CFA7CF1124EACFC6DFA0F3959FDF
:1017D000D1F3950F50E0551F629FF001729FBB2718
:1017E000F00DB11D639FAA27F00DB11DAA1F649FC4
:1017F0006627B00DA11D661F829F2227B00DA11D77
:10180000621F739FB00DA11D621F839FA00D611DFC
:10181000221F749F3327A00D611D231F849F600D1D
:10182000211D822F762F6A2F11249F5750408AF056
:10183000E1F088234AF0EE0FFF1FBB1F661F771FE2
:10184000881F91505040A9F79E3F510570F05CCF22
:10185000A6CF5F3FECF3983EDCF3869577956795CE
:10186000B795F795E7959F5FC1F7FE2B880F911D00
:101870009695879597F9089511F40EF44BCF42C0D1
:1018800073DFD0F39923D9F3CEF39F57550B87FF1E
:1018900047D00024A0E640EA9001805856959795DD
:1018A00028F4805C660F771F881F20F02617370703
:1018B000480730F4621B730B840B202931294A2B13
:1018C000A69517940794202531254A2758F7660FC7
:1018D000771F881F20F026173707480730F4620B60
:1018E000730B840B200D311D411DA09581F7B901AB
:1018F000842F9158880F969587950895E1DE880B7F
:10190000990B08959F3F31F0915020F4879577957A
:101910006795B795880F911D9695879597F90895C6
:1019200091505040660F771F881FD2F70895A1E2AB
:101930001A2EAA1BBB1BFD010DC0AA1FBB1FEE1F49
:10194000FF1FA217B307E407F50720F0A21BB30B94
:10195000E40BF50B661F771F881F991F1A9469F710
:1019600060957095809590959B01AC01BD01CF016C
:101970000895052E97FB1EF400940E94D00C57FD8D
:1019800007D00E94970C07FC03D04EF40C94D00CA7
:1019900050954095309521953F4F4F4F5F4F08959B
:1019A00090958095709561957F4F8F4F9F4F0895CB
:1019B000EE0FFF1F0590F491E02D0994F894FFCFEE
:1019C0000152656365697665645B005D0049524D4F
:1019D000533D270000000000E401B7015D016501EF
:1019E0007801870100000000C1063D0843065C063F
:1019F0004E069F060D0A006E616E00696E66006FEE
:061A00007666002E0000D6
:00000001FF
